:03000000020D7E70
:0C0D7E00787FE4F6D8FD758121020DC5D8
:0E11D4001211C3120B40120026120EC780F536
:100C370020504C4159204D4F44454C200020534FE4
:100C4700554E442053455420002053706520506C66
:100C5700617920002043697220506C61792000205F
:100C6700496E7075742053204E756D3A200020250B
:100C77006425640020496E707574204D204E756D93
:100C87003A200020416C6C20736F6E677320002040
:100C970069732020706C6179696E672120000000FC
:100CA700010200FF10510100010301FF106F020252
:100CB700040500FF108D0303030301FF0F51040216
:100CC700040600FF10AB0505050502FF0F91060698
:100CD700060604FF10C90000000000000000000025
:060CE70000000000000007
:100CED00440000000000004400040000000041002A
:100CFD0018004100190041001B0041001C0041007B
:100D0D001A005000082031323300000000000000AE
:100D1D00000000000050001E2031323300000000A2
:0C0D2D00000000000000000041001D015B
:1000260090002FE024F6B41300400302061C900053
:100036004275F003A4C58325F0C583730200A502AB
:1000460000BF02008A02009F0200D1020150020096
:100056007B02008002008502019F02020F020281DC
:100066000202F30203650203D70204490204BB023B
:10007600052D02059E121222800D12120980081209
:1000860011FC80031211EF90002F7499F090001D5F
:100096007401F012000602061C12121602020C90DF
:1000A600001AE075F008A424A6F582E4340CF58362
:1000B600E49390001AF002020C90001AE075F00822
:1000C600A424A7F582E4340C02019490001AE0B44B
:1000D600040512116E806290001AE0B4052B9000A0
:1000E60000E075F00AA4FFA3E02FFF900018F012BD
:1000F6001031E4900002F0900001F0900000F090C2
:100106000018F090001BF0803090001AE0B403292C
:10011600900004E075F00AA4FFA3E02FFF900019F9
:10012600F012111FE4900006F0900005F090000414
:10013600F0900019F090001CF090001AE075F0089D
:10014600A424A8F582E4340C804490001AE0FFB49D
:100156000517E4900002F0900001F0900000F09086
:100166000018F090001BF08019EFB40315E490001E
:1001760006F0900005F0900004F0900019F0900051
:100186001CF0EF75F008A424A9F582E4340CF5837D
:10019600E49390001AF002060D90001AE0FFB405F1
:1001A6002FA3E0FE04F074002EF582E43400F583FC
:1001B600E4F090001BE0D39402404B900001E090E5
:1001C6000000F0900002E0900001F090001B8033E8
:1001D600EFB4033290001CE0FF04F074042FF582A4
:1001E600E43400F583E4F090001CE0D3940240165A
:1001F600900005E0900004F0900006E0900005F005
:1002060090001C7402F002060D90001AE0FFB4057F
:1002160030A3E0FE04F074002EF582E43400F5838A
:100226007401F090001BE0D39402404C900001E072
:10023600900000F0900002E0900001F090001B801A
:1002460034EFB4033390001CE0FF04F074042FF580
:1002560082E43400F5837401F090001CE0D394022C
:100266004016900005E0900004F0900006E0900033
:1002760005F090001C7402F002060D90001AE0FFD3
:10028600B40530A3E0FE04F074002EF582E43400D9
:10029600F5837402F090001BE0D39402404C90006A
:1002A60001E0900000F0900002E0900001F0900064
:1002B6001B8034EFB4033390001CE0FF04F0740499
:1002C6002FF582E43400F5837402F090001CE0D32D
:1002D60094024016900005E0900004F0900006E0BD
:1002E600900005F090001C7402F002060D90001AB2
:1002F600E0FFB40530A3E0FE04F074002EF582E4BE
:100306003400F5837403F090001BE0D39402404C54
:10031600900001E0900000F0900002E0900001F0F3
:1003260090001B8034EFB4033390001CE0FF04F010
:1003360074042FF582E43400F5837403F090001CF6
:10034600E0D394024016900005E0900004F090007F
:1003560006E0900005F090001C7402F002060D9075
:10036600001AE0FFB40530A3E0FE04F074002EF599
:1003760082E43400F5837404F090001BE0D3940209
:10038600404C900001E0900000F0900002E09000E8
:1003960001F090001B8034EFB4033390001CE0FFA3
:1003A60004F074042FF582E43400F5837404F090AD
:1003B600001CE0D394024016900005E0900004F083
:1003C600900006E0900005F090001C7402F0020612
:1003D6000D90001AE0FFB40530A3E0FE04F07400AF
:1003E6002EF582E43400F5837405F090001BE0D30B
:1003F6009402404C900001E0900000F0900002E072
:10040600900001F090001B8034EFB4033390001C81
:10041600E0FF04F074042FF582E43400F5837405DC
:10042600F090001CE0D394024016900005E0900086
:1004360004F0900006E0900005F090001C7402F0B5
:1004460002060D90001AE0FFB40530A3E0FE04F0AA
:1004560074002EF582E43400F5837406F090001BD8
:10046600E0D39402404C900001E0900000F0900030
:1004760002E0900001F090001B8034EFB40333904B
:10048600001CE0FF04F074042FF582E43400F583C9
:100496007406F090001CE0D394024016900005E02C
:1004A600900004F0900006E0900005F090001C74A7
:1004B60002F002060D90001AE0FFB40530A3E0FE3C
:1004C60004F074002EF582E43400F5837407F0908E
:1004D600001BE0D39402404C900001E0900000F035
:1004E600900002E0900001F090001B8034EFB4030E
:1004F6003390001CE0FF04F074042FF582E434000E
:10050600F5837407F090001CE0D394024016900027
:1005160005E0900004F0900006E0900005F09000E1
:100526001C7402F002060D90001AE0FFB40530A319
:10053600E0FE04F074002EF582E43400F5837408BE
:10054600F090001BE0D39402404C900001E0900034
:1005560000F0900002E0900001F090001B8034EF64
:10056600B4033390001CE0FF04F074042FF582E41A
:100576003400F5837408F090001CE0D39402401612
:10058600900005E0900004F0900006E0900005F071
:1005960090001C7402F0806F90001AE0FFB40530E2
:1005A600A3E0FE04F074002EF582E43400F58374B3
:1005B60009F090001BE0D39402404C900001E090BB
:1005C6000000F0900002E0900001F090001B8034E3
:1005D600EFB4033390001CE0FF04F074042FF5829F
:1005E600E43400F5837409F090001CE0D3940240D3
:1005F60016900005E0900004F0900006E0900005DB
:10060600F090001C7402F090001D7401F0120006B8
:1006160090002F7499F090001AE075F008A424AAAF
:10062600F582E4340CF583740193FA740293F902AB
:0206360009F2C7
:1010510078087C007D017BFF7A0C7937120AC4780D
:0E1061001E7C007D017BFF7A0C7944020AC4DC
:10106F0078087C007D017BFF7A0C7937120AC478EF
:0E107F001E7C007D017BFF7A0C7944020AC4BE
:10108D0078087C007D017BFF7A0C7950120AC478B8
:0E109D001E7C007D017BFF7A0C795B020AC489
:100F510078087C007D017BFF7A0C7966120AC490C7
:100F6100005B74FFF0A3740CF0A37475F09000049F
:100F7100E0FF90005EE4F0A3EFF0900005E0FF9049
:100F81000060E4F0A3EFF07B017A00791E02069D78
:1010AB0078087C007D017BFF7A0C7950120AC4789A
:0E10BB001E7C007D017BFF7A0C795B020AC46B
:100F910078087C007D017BFF7A0C797B120AC49072
:100FA100005B74FFF0A3740CF0A37475F090000063
:100FB100E0FF90005EE4F0A3EFF0900001E0FF900D
:100FC1000060E4F0A3EFF07B017A00791E02069D38
:1010C90078087C007D017BFF7A0C798A120AC47842
:0E10D9001E7C007D017BFF7A0C7996020AC412
:100EC70090001DE06401703F7B017A0079087D0185
:100ED700FF120F0F7B017A00791E7D02E4FF120FCC
:100EE7000FE490001DF090001AE014600D14600CE0
:100EF70024FE60062404700F800280047D018002B6
:080F07007D027F0F1210E722AA
:1011C3007F6412000E1211E21211B012122E020EDF
:0111D30077A4
:03123500DFFE22B7
:10000E00AE07AF061EEF600C7FF51212357FF512AC
:05001E00123580EE2206
:100E77007F0F12000E7F3812113A7F0512000E7F86
:100E87003812113A7F0512000E7F3812113A7F058A
:100E970012000E7F3812113A7F0512000E7F0812DA
:100EA700113A7F0512000E7F0112113A7F051200D9
:100EB7000E7F0612113A7F0512000E7F0C02113ABF
:10113A0090005CEFF07F0512000EC2A4C2A59000D9
:0A114A005CE0F580D2A600C2A622E8
:1011540090005CEFF07F0512000ED2A4C2A59000AF
:0A1164005CE0F580D2A600C2A622CE
:100F0F00900058EFF0A3EBF0A3EAF0A3E9F0ED9017
:100F1F000058B40105E024808003E024C0FF1211C3
:100F2F003A900059E0FBA3E0FAA3E0F912099DFF04
:100F3F00600F12115490005AE475F0011209B68037
:020F4F00E0229E
:1010E700900058EFF0EDB40105E0248080069000F1
:0D10F70058E024C0FF12113A7F7F0211540F
:050006007F0102113A28
:040D390041008000F5
:07122E00D288D2A8D2AF2242
:0D11E200438902E4F58CF58AD2A9D28C2253
:100D3D00410031006021003700000000000000007C
:100D4D000000000000000000000000000000000096
:100D5D00000000000000000000410036004100309E
:100D6D00004400320000000041002F9941002E0088
:03000300020E0AE0
:0F0E0A00C0E0C083C082C0D075D000C006C00752
:100E1900900036E0700904F0900031E4F0804290CF
:100E29000031E0FFD3941E400AEF943C5005900036
:100E39002EE4F090002EE0FE04F074372EF582E4E3
:100E49003400F583EFF0900031E4F090002EE0B427
:100E5900210FE4F0900031F0900036F0900030045A
:010E6900F098
:0D0E6A00D007D006D0D0D082D083D0E032A7
:03000B0002119D42
:10119D00C0E0C083C082900031E004F0D082D083E3
:0311AD00D0E0325D
:100FD100E4FF7E01FDE4FCEFC313FF74372EF582BD
:100FE100E43400F583E0D394074004EF4480FF0E1E
:100FF1000CECB408E274322DF582E43400F583EF91
:08100100F0E4FF0DEDB404CD95
:0110090022C4
:100B4000900030E0B40105E4F0120FD1900034E0E1
:100B50001209CC0BA2070BFB080BAB090BE30C0B28
:100B6000D30D0BB3150BDB160BEB180B99190C03FC
:100B70001C0B90400C13420BBB430BCB450BC347E4
:100B80000C234A0C1B520C0B5A0BF35E00000C2B6F
:100B900090002F740AF0020C3190002F740BF002B9
:100BA0000C3190002F740CF0020C3190002F740D5A
:100BB000F0807E90002F740EF0807690002F740FDE
:100BC000F0806E90002F7410F0806690002F7411EA
:100BD000F0805E90002F7412F0805690002F7413F6
:100BE000F0804E90002F7414F0804690002F741502
:100BF000F0803E90002F7416F0803690002F74170E
:100C0000F0802E90002F7418F0802690002F741919
:100C1000F0801E90002F741AF0801690002F741B25
:100C2000F0800E90002F741CF0800690002F7499B5
:070C3000F0E4900034F02213
:1011B000759850438920758DFD758BFDD28ED2AF09
:0311C000D2AC228C
:03002300021104C3
:10110400C0E0C083C082309804C2988007C299901E
:0B1114000081E4F0D082D083D0E032F4
:071187007F7E12118E7F0232
:0F118E008F999000817401F0900081E070FA2237
:0C1216001211870F12118E7FEF02118E53
:0D11EF001211877F0412118E7FEF02118E06
:10103100AE077F7E12118E7F0412118E7F33121143
:101041008EE4FF12118EAF0612118E7FEF02118E08
:10111F00AE077F7E12118E7F0312118E7F31121157
:0B112F008EAF0612118E7FEF02118EB2
:0C1222001211871F12118E7FEF02118E37
:0D11FC001211877F0C12118E7FEF02118EF1
:0D1209001211877F0E12118E7FEF02118EE1
:10116E007F7E12118E7F0312118E7F3312118EE449
:09117E00FF12118E7FEF02118EA9
:100D8A000211D4E493A3F8E493A34003F68001F29A
:100D9A0008DFF48029E493A3F85407240CC8C3336A
:100DAA00C4540F4420C8834004F456800146F6DF39
:100DBA00E4800B0102040810204080900CEDE47ED0
:100DCA00019360BCA3FF543F30E509541FFEE4932E
:100DDA00A360010ECF54C025E060A840B8E493A3F5
:100DEA00FAE493A3F8E493A3C8C582C8CAC583CA20
:100DFA00F0A3C8C582C8CAC583CADFE9DEE780BED8
:010D7D000075
:10099D00BB010689828A83E0225002E722BBFE0258
:0909AD00E32289828A83E493228B
:1009B600C5F0F8A3E028F0C5F0F8E58215827002CC
:0609C6001583E038F02269
:1009CC00D083D082F8E4937012740193700DA3A3BA
:1009DC0093F8740193F5828883E4737402936860CE
:0609EC00EFA3A3A380DFCE
:0609F2008A838982E47390
:10063800E508245BF582E43400F583E005082290A0
:10064800005830070390005BE475F001120B20029C
:10065800099D2000E97F2ED2008018EF540F2490C6
:10066800D43440D4FF30040BEF24BFB41A00500335
:100678002461FFE50960021509050CE50C70020507
:100688000B30070E900058E475F001120B20EF02B2
:100698000B0E02100A7403D2078003E4C207F508A0
:1006A800900058120B37E4F509F50BF50CE50960D5
:1006B800077F2012067B80F5750AFFC201C200C2BF
:1006C80002C203C205C206C208120647FF700D30F7
:1006D80007057F0012068CAF0CAE0B22B4255FC253
:1006E800D5C204120647FF24D0B40A00501A75F088
:1006F8000A780930D50508B6FF0106C6A426F620F3
:10070800D5047002D20380D924CFB41A00EF500464
:10071800C2E5D20402088DD20180C6D20080C0D2C0
:100728000280BCD2D580BAD20580B47F2012067B65
:100738002002077401B5090040F1120638FF1206BD
:100748007B0206B5D208D2068095120638FB12063F
:1007580038FA120638F94A4B7006795E7A097BFF37
:1007680020022EE509602A7E008E82758300120A17
:10077800E160060EEE650A70F0C2D5EBC0E0EAC093
:10078800E0E9C0E0EE1208D4D0E0F9D0E0FAD0E019
:10079800FB12099DFF60AAEBC0E0EAC0E0E9C0E0F7
:1007A80012067BD0E02401F9D0E03400FAD0E0FB57
:1007B800E50A0460DCD50AD980877BFF7A0879D0FE
:1007C800D202809C791080027908C206C20880088B
:1007D800D2D5790A8004790AC2D5E50A047002F5EF
:1007E8000AE4FAFDFEFF120638FC7B08200113120A
:1007F8000638FD7B1030000A120638FE120638FF54
:100808007B20EC3382D592D55013C3E43000069F89
:10081800FFE49EFEE42001039DFDE49CFCE4CBF88C
:10082800C201EC700CCFCECDCCE824F8F870F38080
:1008380017C3EF33FFEE33FEED33FDEC33FCEB3340
:10084800FB994002FB0FD8E9EB300105F8D0E0C472
:1008580048B201C0E00AEC4D4E4F78207B0070C2D0
:10086800EAB50A0040BCC0E01208D6D0F0D0E020BB
:100878000104C4C0E0C4B201C0F0120664D0F0D5CF
:10088800F0EB0206B51209CC07525307CC580723E0
:100898004C071F4207D04F07D84407D849073843A9
:0808A80007DE5507C24607C236
:1008B0004507C247097E5007272D072B2E074E2BD1
:1008C000072F23074C2009672A06E7480000074640
:1008D0003F3F3F00790AA2D5200314300509B91023
:1008E000020404B9080104A2D52006025001042024
:1008F00002689202B509005034C0E07F203003192D
:100900007F30A20272067205500F12092DC202C278
:1009100006C205C2087F30800F300503E9C0E0122F
:10092000067B300503D0E0F9D0E0B509CC300517DF
:100930007F30B9100C12067B7F583004077F788017
:1009400003B9080312067B3002057F2D02067B7F68
:10095000202008F87F2B2006F322920280CF286EF9
:10096000756C6C2900D2011206383001F8C201788A
:100970000930D50108F60206E72D50434958120602
:10098000382403B405004001E49009799312066C01
:0D099000743A12066CD2037509040207CCFC
:1009F800E709F60870FA8046E709F20870FA803EBF
:100A080088828C83E709F0A370FA807EE309F608F0
:100A180070FA8076E309F20870FA806E88828C8317
:100A2800E309F0A370FA806289828A83E0A3F6085A
:100A380070FA805689828A83E0A3F20870FA804AA5
:100A480080D280FA80C680D4806580F280318010A0
:100A580080A680EA809A80A880DA80E280CA803105
:100A680089828A83ECFAE493A3C8C582C8CCC5837B
:100A7800CCF0A3C8C582C8CCC583CC70E9800D89E9
:100A8800828A83E493A3F60870F9ECFAA9F0EDFBE7
:100A98002289828A83ECFAE0A3C8C582C8CCC583C0
:100AA800CCF0A3C8C582C8CCC583CC70EA80DD89E8
:100AB800828A83E493A3F20870F980CE88F0ED244B
:100AC80002B4040050C4F582EB2402B4040050BA06
:090AD8002323458223900A487390
:100AE100BB010CE58229F582E5833AF583E02250CA
:100AF10006E92582F8E622BBFE06E92582F8E22214
:0D0B0100E58229F582E5833AF583E493222D
:100B0E00BB010689828A83F0225002F722BBFE01C6
:020B1E00F322C0
:100B2000F8E0FBA3A3E0F925F0F0E582158270025E
:070B30001583E0FA38F02202
:090B3700EBF0A3EAF0A3E9F022BF
:10100A00EFB40A07740D121015740A309811A899D2
:10101A00B8130CC2983098FDA899C298B811F63046
:07102A0099FDC299F599221E
:00000001FF
